{
	"github/reselbob/solidity_examples/optimization/nonoptimized.sol": {
		"Nonoptimzed": {
			"abi": [
				{
					"inputs": [],
					"name": "addStoredNumber",
					"outputs": [
						{
							"internalType": "uint8",
							"name": "",
							"type": "uint8"
						}
					],
					"stateMutability": "view",
					"type": "function"
				},
				{
					"inputs": [],
					"name": "multiplyStoredNumber",
					"outputs": [
						{
							"internalType": "uint8",
							"name": "",
							"type": "uint8"
						}
					],
					"stateMutability": "view",
					"type": "function"
				},
				{
					"inputs": [
						{
							"internalType": "string",
							"name": "_name",
							"type": "string"
						}
					],
					"name": "sayHello",
					"outputs": [
						{
							"internalType": "string",
							"name": "",
							"type": "string"
						}
					],
					"stateMutability": "pure",
					"type": "function"
				},
				{
					"inputs": [
						{
							"internalType": "uint8",
							"name": "_a",
							"type": "uint8"
						},
						{
							"internalType": "uint16",
							"name": "_b",
							"type": "uint16"
						},
						{
							"internalType": "uint8",
							"name": "_c",
							"type": "uint8"
						}
					],
					"name": "store",
					"outputs": [],
					"stateMutability": "nonpayable",
					"type": "function"
				},
				{
					"inputs": [],
					"name": "subtractStoredNumber",
					"outputs": [
						{
							"internalType": "int8",
							"name": "",
							"type": "int8"
						}
					],
					"stateMutability": "view",
					"type": "function"
				}
			],
			"devdoc": {
				"custom:dev-run-script": "./scripts/deploy_with_ethers.ts",
				"details": "A demonstration contract to represents unoptimized code",
				"kind": "dev",
				"methods": {
					"addStoredNumber()": {
						"details": "adds stored numbers"
					},
					"multiplyStoredNumber()": {
						"details": "multiplies stored numbers"
					},
					"sayHello(string)": {
						"details": "a function that returns a custom greeting and demonstrates how to use string",
						"params": {
							"_name": ", the name upon which to base the customer greeting"
						}
					},
					"store(uint8,uint16,uint8)": {
						"details": "Stores value in variables",
						"params": {
							"_a": ", number of unit8",
							"_b": ", number of unit16",
							"_c": ", number of unit8"
						}
					},
					"subtractStoredNumber()": {
						"details": "substracts stored numbers according to the oder in which they are declared"
					}
				},
				"title": "Nonoptimzed",
				"version": 1
			},
			"evm": {
				"assembly": "    /* \"github/reselbob/solidity_examples/optimization/nonoptimized.sol\":222:1660  contract Nonoptimzed {... */\n  mstore(0x40, 0x80)\n  callvalue\n  dup1\n  iszero\n  tag_1\n  jumpi\n  0x00\n  dup1\n  revert\ntag_1:\n  pop\n  dataSize(sub_0)\n  dup1\n  dataOffset(sub_0)\n  0x00\n  codecopy\n  0x00\n  return\nstop\n\nsub_0: assembly {\n        /* \"github/reselbob/solidity_examples/optimization/nonoptimized.sol\":222:1660  contract Nonoptimzed {... */\n      mstore(0x40, 0x80)\n      callvalue\n      dup1\n      iszero\n      tag_1\n      jumpi\n      0x00\n      dup1\n      revert\n    tag_1:\n      pop\n      jumpi(tag_2, lt(calldatasize, 0x04))\n      shr(0xe0, calldataload(0x00))\n      dup1\n      0x27f23416\n      eq\n      tag_3\n      jumpi\n      dup1\n      0x704f487c\n      eq\n      tag_4\n      jumpi\n      dup1\n      0xc3a9b1c5\n      eq\n      tag_5\n      jumpi\n      dup1\n      0xe19a4ef4\n      eq\n      tag_6\n      jumpi\n      dup1\n      0xf72adfb7\n      eq\n      tag_7\n      jumpi\n    tag_2:\n      0x00\n      dup1\n      revert\n        /* \"github/reselbob/solidity_examples/optimization/nonoptimized.sol\":447:585  function store(... */\n    tag_3:\n      tag_8\n      0x04\n      dup1\n      calldatasize\n      sub\n      dup2\n      add\n      swap1\n      tag_9\n      swap2\n      swap1\n      tag_10\n      jump\t// in\n    tag_9:\n      tag_11\n      jump\t// in\n    tag_8:\n      stop\n        /* \"github/reselbob/solidity_examples/optimization/nonoptimized.sol\":794:894  function multiplyStoredNumber() public view returns (uint8) {... */\n    tag_4:\n      tag_12\n      tag_13\n      jump\t// in\n    tag_12:\n      mload(0x40)\n      tag_14\n      swap2\n      swap1\n      tag_15\n      jump\t// in\n    tag_14:\n      mload(0x40)\n      dup1\n      swap2\n      sub\n      swap1\n      return\n        /* \"github/reselbob/solidity_examples/optimization/nonoptimized.sol\":1404:1658  function sayHello(string memory _name) public pure returns (string memory) {... */\n    tag_5:\n      tag_16\n      0x04\n      dup1\n      calldatasize\n      sub\n      dup2\n      add\n      swap1\n      tag_17\n      swap2\n      swap1\n      tag_18\n      jump\t// in\n    tag_17:\n      tag_19\n      jump\t// in\n    tag_16:\n      mload(0x40)\n      tag_20\n      swap2\n      swap1\n      tag_21\n      jump\t// in\n    tag_20:\n      mload(0x40)\n      dup1\n      swap2\n      sub\n      swap1\n      return\n        /* \"github/reselbob/solidity_examples/optimization/nonoptimized.sol\":1003:1222  function subtractStoredNumber() public view returns (int8) {... */\n    tag_6:\n      tag_22\n      tag_23\n      jump\t// in\n    tag_22:\n      mload(0x40)\n      tag_24\n      swap2\n      swap1\n      tag_25\n      jump\t// in\n    tag_24:\n      mload(0x40)\n      dup1\n      swap2\n      sub\n      swap1\n      return\n        /* \"github/reselbob/solidity_examples/optimization/nonoptimized.sol\":639:734  function addStoredNumber() public view returns (uint8) {... */\n    tag_7:\n      tag_26\n      tag_27\n      jump\t// in\n    tag_26:\n      mload(0x40)\n      tag_28\n      swap2\n      swap1\n      tag_15\n      jump\t// in\n    tag_28:\n      mload(0x40)\n      dup1\n      swap2\n      sub\n      swap1\n      return\n        /* \"github/reselbob/solidity_examples/optimization/nonoptimized.sol\":447:585  function store(... */\n    tag_11:\n        /* \"github/reselbob/solidity_examples/optimization/nonoptimized.sol\":544:546  _a */\n      dup3\n        /* \"github/reselbob/solidity_examples/optimization/nonoptimized.sol\":540:541  a */\n      0x00\n      dup1\n        /* \"github/reselbob/solidity_examples/optimization/nonoptimized.sol\":540:546  a = _a */\n      0x0100\n      exp\n      dup2\n      sload\n      dup2\n      0xff\n      mul\n      not\n      and\n      swap1\n      dup4\n      0xff\n      and\n      mul\n      or\n      swap1\n      sstore\n      pop\n        /* \"github/reselbob/solidity_examples/optimization/nonoptimized.sol\":560:562  _b */\n      dup2\n        /* \"github/reselbob/solidity_examples/optimization/nonoptimized.sol\":556:557  b */\n      0x00\n      0x01\n        /* \"github/reselbob/solidity_examples/optimization/nonoptimized.sol\":556:562  b = _b */\n      0x0100\n      exp\n      dup2\n      sload\n      dup2\n      0xffff\n      mul\n      not\n      and\n      swap1\n      dup4\n      0xffff\n      and\n      mul\n      or\n      swap1\n      sstore\n      pop\n        /* \"github/reselbob/solidity_examples/optimization/nonoptimized.sol\":576:578  _c */\n      dup1\n        /* \"github/reselbob/solidity_examples/optimization/nonoptimized.sol\":572:573  c */\n      0x00\n      0x03\n        /* \"github/reselbob/solidity_examples/optimization/nonoptimized.sol\":572:578  c = _c */\n      0x0100\n      exp\n      dup2\n      sload\n      dup2\n      0xff\n      mul\n      not\n      and\n      swap1\n      dup4\n      0xff\n      and\n      mul\n      or\n      swap1\n      sstore\n      pop\n        /* \"github/reselbob/solidity_examples/optimization/nonoptimized.sol\":447:585  function store(... */\n      pop\n      pop\n      pop\n      jump\t// out\n        /* \"github/reselbob/solidity_examples/optimization/nonoptimized.sol\":794:894  function multiplyStoredNumber() public view returns (uint8) {... */\n    tag_13:\n        /* \"github/reselbob/solidity_examples/optimization/nonoptimized.sol\":847:852  uint8 */\n      0x00\n        /* \"github/reselbob/solidity_examples/optimization/nonoptimized.sol\":886:887  c */\n      dup1\n      0x03\n      swap1\n      sload\n      swap1\n      0x0100\n      exp\n      swap1\n      div\n      0xff\n      and\n        /* \"github/reselbob/solidity_examples/optimization/nonoptimized.sol\":881:882  b */\n      0x00\n      0x01\n      swap1\n      sload\n      swap1\n      0x0100\n      exp\n      swap1\n      div\n      0xffff\n      and\n        /* \"github/reselbob/solidity_examples/optimization/nonoptimized.sol\":871:872  a */\n      0x00\n      dup1\n      sload\n      swap1\n      0x0100\n      exp\n      swap1\n      div\n      0xff\n      and\n        /* \"github/reselbob/solidity_examples/optimization/nonoptimized.sol\":871:883  a * uint8(b) */\n      tag_31\n      swap2\n      swap1\n      tag_32\n      jump\t// in\n    tag_31:\n        /* \"github/reselbob/solidity_examples/optimization/nonoptimized.sol\":871:887  a * uint8(b) * c */\n      tag_33\n      swap2\n      swap1\n      tag_32\n      jump\t// in\n    tag_33:\n        /* \"github/reselbob/solidity_examples/optimization/nonoptimized.sol\":864:887  return a * uint8(b) * c */\n      swap1\n      pop\n        /* \"github/reselbob/solidity_examples/optimization/nonoptimized.sol\":794:894  function multiplyStoredNumber() public view returns (uint8) {... */\n      swap1\n      jump\t// out\n        /* \"github/reselbob/solidity_examples/optimization/nonoptimized.sol\":1404:1658  function sayHello(string memory _name) public pure returns (string memory) {... */\n    tag_19:\n        /* \"github/reselbob/solidity_examples/optimization/nonoptimized.sol\":1464:1477  string memory */\n      0x60\n        /* \"github/reselbob/solidity_examples/optimization/nonoptimized.sol\":1489:1508  string memory str_1 */\n      0x00\n        /* \"github/reselbob/solidity_examples/optimization/nonoptimized.sol\":1489:1519  string memory str_1 = \"Hello \" */\n      mload(0x40)\n      dup1\n      0x40\n      add\n      0x40\n      mstore\n      dup1\n      0x06\n      dup2\n      mstore\n      0x20\n      add\n      0x48656c6c6f200000000000000000000000000000000000000000000000000000\n      dup2\n      mstore\n      pop\n      swap1\n      pop\n        /* \"github/reselbob/solidity_examples/optimization/nonoptimized.sol\":1529:1548  string memory str_2 */\n      0x00\n        /* \"github/reselbob/solidity_examples/optimization/nonoptimized.sol\":1551:1556  _name */\n      dup4\n        /* \"github/reselbob/solidity_examples/optimization/nonoptimized.sol\":1529:1556  string memory str_2 = _name */\n      swap1\n      pop\n        /* \"github/reselbob/solidity_examples/optimization/nonoptimized.sol\":1567:1587  string memory result */\n      0x00\n        /* \"github/reselbob/solidity_examples/optimization/nonoptimized.sol\":1614:1619  str_1 */\n      dup3\n        /* \"github/reselbob/solidity_examples/optimization/nonoptimized.sol\":1621:1626  str_2 */\n      dup3\n        /* \"github/reselbob/solidity_examples/optimization/nonoptimized.sol\":1597:1627  abi.encodePacked(str_1, str_2) */\n      add(0x20, mload(0x40))\n      tag_35\n      swap3\n      swap2\n      swap1\n      tag_36\n      jump\t// in\n    tag_35:\n      mload(0x40)\n      0x20\n      dup2\n      dup4\n      sub\n      sub\n      dup2\n      mstore\n      swap1\n      0x40\n      mstore\n        /* \"github/reselbob/solidity_examples/optimization/nonoptimized.sol\":1567:1628  string memory result = string(abi.encodePacked(str_1, str_2)) */\n      swap1\n      pop\n        /* \"github/reselbob/solidity_examples/optimization/nonoptimized.sol\":1645:1651  result */\n      dup1\n        /* \"github/reselbob/solidity_examples/optimization/nonoptimized.sol\":1638:1651  return result */\n      swap4\n      pop\n      pop\n      pop\n      pop\n        /* \"github/reselbob/solidity_examples/optimization/nonoptimized.sol\":1404:1658  function sayHello(string memory _name) public pure returns (string memory) {... */\n      swap2\n      swap1\n      pop\n      jump\t// out\n        /* \"github/reselbob/solidity_examples/optimization/nonoptimized.sol\":1003:1222  function subtractStoredNumber() public view returns (int8) {... */\n    tag_23:\n        /* \"github/reselbob/solidity_examples/optimization/nonoptimized.sol\":1056:1060  int8 */\n      0x00\n        /* \"github/reselbob/solidity_examples/optimization/nonoptimized.sol\":1072:1079  int8 _a */\n      dup1\n        /* \"github/reselbob/solidity_examples/optimization/nonoptimized.sol\":1087:1088  a */\n      0x00\n      dup1\n      sload\n      swap1\n      0x0100\n      exp\n      swap1\n      div\n      0xff\n      and\n        /* \"github/reselbob/solidity_examples/optimization/nonoptimized.sol\":1072:1089  int8 _a = int8(a) */\n      swap1\n      pop\n        /* \"github/reselbob/solidity_examples/optimization/nonoptimized.sol\":1099:1106  int8 _b */\n      0x00\n        /* \"github/reselbob/solidity_examples/optimization/nonoptimized.sol\":1120:1121  b */\n      dup1\n      0x01\n      swap1\n      sload\n      swap1\n      0x0100\n      exp\n      swap1\n      div\n      0xffff\n      and\n        /* \"github/reselbob/solidity_examples/optimization/nonoptimized.sol\":1099:1123  int8 _b = int8(uint8(b)) */\n      swap1\n      pop\n        /* \"github/reselbob/solidity_examples/optimization/nonoptimized.sol\":1133:1140  int8 _c */\n      0x00\n        /* \"github/reselbob/solidity_examples/optimization/nonoptimized.sol\":1148:1149  c */\n      dup1\n      0x03\n      swap1\n      sload\n      swap1\n      0x0100\n      exp\n      swap1\n      div\n      0xff\n      and\n        /* \"github/reselbob/solidity_examples/optimization/nonoptimized.sol\":1133:1150  int8 _c = int8(c) */\n      swap1\n      pop\n        /* \"github/reselbob/solidity_examples/optimization/nonoptimized.sol\":1160:1171  int8 result */\n      0x00\n        /* \"github/reselbob/solidity_examples/optimization/nonoptimized.sol\":1184:1186  _c */\n      dup2\n        /* \"github/reselbob/solidity_examples/optimization/nonoptimized.sol\":1179:1181  _b */\n      dup4\n        /* \"github/reselbob/solidity_examples/optimization/nonoptimized.sol\":1174:1176  _a */\n      dup6\n        /* \"github/reselbob/solidity_examples/optimization/nonoptimized.sol\":1174:1181  _a - _b */\n      tag_38\n      swap2\n      swap1\n      tag_39\n      jump\t// in\n    tag_38:\n        /* \"github/reselbob/solidity_examples/optimization/nonoptimized.sol\":1174:1186  _a - _b - _c */\n      tag_40\n      swap2\n      swap1\n      tag_39\n      jump\t// in\n    tag_40:\n        /* \"github/reselbob/solidity_examples/optimization/nonoptimized.sol\":1160:1186  int8 result = _a - _b - _c */\n      swap1\n      pop\n        /* \"github/reselbob/solidity_examples/optimization/nonoptimized.sol\":1208:1214  result */\n      dup1\n        /* \"github/reselbob/solidity_examples/optimization/nonoptimized.sol\":1196:1215  return int8(result) */\n      swap5\n      pop\n      pop\n      pop\n      pop\n      pop\n        /* \"github/reselbob/solidity_examples/optimization/nonoptimized.sol\":1003:1222  function subtractStoredNumber() public view returns (int8) {... */\n      swap1\n      jump\t// out\n        /* \"github/reselbob/solidity_examples/optimization/nonoptimized.sol\":639:734  function addStoredNumber() public view returns (uint8) {... */\n    tag_27:\n        /* \"github/reselbob/solidity_examples/optimization/nonoptimized.sol\":687:692  uint8 */\n      0x00\n        /* \"github/reselbob/solidity_examples/optimization/nonoptimized.sol\":726:727  c */\n      dup1\n      0x03\n      swap1\n      sload\n      swap1\n      0x0100\n      exp\n      swap1\n      div\n      0xff\n      and\n        /* \"github/reselbob/solidity_examples/optimization/nonoptimized.sol\":721:722  b */\n      0x00\n      0x01\n      swap1\n      sload\n      swap1\n      0x0100\n      exp\n      swap1\n      div\n      0xffff\n      and\n        /* \"github/reselbob/solidity_examples/optimization/nonoptimized.sol\":711:712  a */\n      0x00\n      dup1\n      sload\n      swap1\n      0x0100\n      exp\n      swap1\n      div\n      0xff\n      and\n        /* \"github/reselbob/solidity_examples/optimization/nonoptimized.sol\":711:723  a + uint8(b) */\n      tag_42\n      swap2\n      swap1\n      tag_43\n      jump\t// in\n    tag_42:\n        /* \"github/reselbob/solidity_examples/optimization/nonoptimized.sol\":711:727  a + uint8(b) + c */\n      tag_44\n      swap2\n      swap1\n      tag_43\n      jump\t// in\n    tag_44:\n        /* \"github/reselbob/solidity_examples/optimization/nonoptimized.sol\":704:727  return a + uint8(b) + c */\n      swap1\n      pop\n        /* \"github/reselbob/solidity_examples/optimization/nonoptimized.sol\":639:734  function addStoredNumber() public view returns (uint8) {... */\n      swap1\n      jump\t// out\n        /* \"#utility.yul\":7:419   */\n    tag_46:\n        /* \"#utility.yul\":85:90   */\n      0x00\n        /* \"#utility.yul\":110:176   */\n      tag_48\n        /* \"#utility.yul\":126:175   */\n      tag_49\n        /* \"#utility.yul\":168:174   */\n      dup5\n        /* \"#utility.yul\":126:175   */\n      tag_50\n      jump\t// in\n    tag_49:\n        /* \"#utility.yul\":110:176   */\n      tag_51\n      jump\t// in\n    tag_48:\n        /* \"#utility.yul\":101:176   */\n      swap1\n      pop\n        /* \"#utility.yul\":199:205   */\n      dup3\n        /* \"#utility.yul\":192:197   */\n      dup2\n        /* \"#utility.yul\":185:206   */\n      mstore\n        /* \"#utility.yul\":237:241   */\n      0x20\n        /* \"#utility.yul\":230:235   */\n      dup2\n        /* \"#utility.yul\":226:242   */\n      add\n        /* \"#utility.yul\":275:278   */\n      dup5\n        /* \"#utility.yul\":266:272   */\n      dup5\n        /* \"#utility.yul\":261:264   */\n      dup5\n        /* \"#utility.yul\":257:273   */\n      add\n        /* \"#utility.yul\":254:279   */\n      gt\n        /* \"#utility.yul\":251:363   */\n      iszero\n      tag_52\n      jumpi\n        /* \"#utility.yul\":282:361   */\n      tag_53\n      tag_54\n      jump\t// in\n    tag_53:\n        /* \"#utility.yul\":251:363   */\n    tag_52:\n        /* \"#utility.yul\":372:413   */\n      tag_55\n        /* \"#utility.yul\":406:412   */\n      dup5\n        /* \"#utility.yul\":401:404   */\n      dup3\n        /* \"#utility.yul\":396:399   */\n      dup6\n        /* \"#utility.yul\":372:413   */\n      tag_56\n      jump\t// in\n    tag_55:\n        /* \"#utility.yul\":91:419   */\n      pop\n        /* \"#utility.yul\":7:419   */\n      swap4\n      swap3\n      pop\n      pop\n      pop\n      jump\t// out\n        /* \"#utility.yul\":439:779   */\n    tag_57:\n        /* \"#utility.yul\":495:500   */\n      0x00\n        /* \"#utility.yul\":544:547   */\n      dup3\n        /* \"#utility.yul\":537:541   */\n      0x1f\n        /* \"#utility.yul\":529:535   */\n      dup4\n        /* \"#utility.yul\":525:542   */\n      add\n        /* \"#utility.yul\":521:548   */\n      slt\n        /* \"#utility.yul\":511:633   */\n      tag_59\n      jumpi\n        /* \"#utility.yul\":552:631   */\n      tag_60\n      tag_61\n      jump\t// in\n    tag_60:\n        /* \"#utility.yul\":511:633   */\n    tag_59:\n        /* \"#utility.yul\":669:675   */\n      dup2\n        /* \"#utility.yul\":656:676   */\n      calldataload\n        /* \"#utility.yul\":694:773   */\n      tag_62\n        /* \"#utility.yul\":769:772   */\n      dup5\n        /* \"#utility.yul\":761:767   */\n      dup3\n        /* \"#utility.yul\":754:758   */\n      0x20\n        /* \"#utility.yul\":746:752   */\n      dup7\n        /* \"#utility.yul\":742:759   */\n      add\n        /* \"#utility.yul\":694:773   */\n      tag_46\n      jump\t// in\n    tag_62:\n        /* \"#utility.yul\":685:773   */\n      swap2\n      pop\n        /* \"#utility.yul\":501:779   */\n      pop\n        /* \"#utility.yul\":439:779   */\n      swap3\n      swap2\n      pop\n      pop\n      jump\t// out\n        /* \"#utility.yul\":785:922   */\n    tag_63:\n        /* \"#utility.yul\":830:835   */\n      0x00\n        /* \"#utility.yul\":868:874   */\n      dup2\n        /* \"#utility.yul\":855:875   */\n      calldataload\n        /* \"#utility.yul\":846:875   */\n      swap1\n      pop\n        /* \"#utility.yul\":884:916   */\n      tag_65\n        /* \"#utility.yul\":910:915   */\n      dup2\n        /* \"#utility.yul\":884:916   */\n      tag_66\n      jump\t// in\n    tag_65:\n        /* \"#utility.yul\":785:922   */\n      swap3\n      swap2\n      pop\n      pop\n      jump\t// out\n        /* \"#utility.yul\":928:1063   */\n    tag_67:\n        /* \"#utility.yul\":972:977   */\n      0x00\n        /* \"#utility.yul\":1010:1016   */\n      dup2\n        /* \"#utility.yul\":997:1017   */\n      calldataload\n        /* \"#utility.yul\":988:1017   */\n      swap1\n      pop\n        /* \"#utility.yul\":1026:1057   */\n      tag_69\n        /* \"#utility.yul\":1051:1056   */\n      dup2\n        /* \"#utility.yul\":1026:1057   */\n      tag_70\n      jump\t// in\n    tag_69:\n        /* \"#utility.yul\":928:1063   */\n      swap3\n      swap2\n      pop\n      pop\n      jump\t// out\n        /* \"#utility.yul\":1069:1578   */\n    tag_18:\n        /* \"#utility.yul\":1138:1144   */\n      0x00\n        /* \"#utility.yul\":1187:1189   */\n      0x20\n        /* \"#utility.yul\":1175:1184   */\n      dup3\n        /* \"#utility.yul\":1166:1173   */\n      dup5\n        /* \"#utility.yul\":1162:1185   */\n      sub\n        /* \"#utility.yul\":1158:1190   */\n      slt\n        /* \"#utility.yul\":1155:1274   */\n      iszero\n      tag_72\n      jumpi\n        /* \"#utility.yul\":1193:1272   */\n      tag_73\n      tag_74\n      jump\t// in\n    tag_73:\n        /* \"#utility.yul\":1155:1274   */\n    tag_72:\n        /* \"#utility.yul\":1341:1342   */\n      0x00\n        /* \"#utility.yul\":1330:1339   */\n      dup3\n        /* \"#utility.yul\":1326:1343   */\n      add\n        /* \"#utility.yul\":1313:1344   */\n      calldataload\n        /* \"#utility.yul\":1371:1389   */\n      0xffffffffffffffff\n        /* \"#utility.yul\":1363:1369   */\n      dup2\n        /* \"#utility.yul\":1360:1390   */\n      gt\n        /* \"#utility.yul\":1357:1474   */\n      iszero\n      tag_75\n      jumpi\n        /* \"#utility.yul\":1393:1472   */\n      tag_76\n      tag_77\n      jump\t// in\n    tag_76:\n        /* \"#utility.yul\":1357:1474   */\n    tag_75:\n        /* \"#utility.yul\":1498:1561   */\n      tag_78\n        /* \"#utility.yul\":1553:1560   */\n      dup5\n        /* \"#utility.yul\":1544:1550   */\n      dup3\n        /* \"#utility.yul\":1533:1542   */\n      dup6\n        /* \"#utility.yul\":1529:1551   */\n      add\n        /* \"#utility.yul\":1498:1561   */\n      tag_57\n      jump\t// in\n    tag_78:\n        /* \"#utility.yul\":1488:1561   */\n      swap2\n      pop\n        /* \"#utility.yul\":1284:1571   */\n      pop\n        /* \"#utility.yul\":1069:1578   */\n      swap3\n      swap2\n      pop\n      pop\n      jump\t// out\n        /* \"#utility.yul\":1584:2193   */\n    tag_10:\n        /* \"#utility.yul\":1656:1662   */\n      0x00\n        /* \"#utility.yul\":1664:1670   */\n      dup1\n        /* \"#utility.yul\":1672:1678   */\n      0x00\n        /* \"#utility.yul\":1721:1723   */\n      0x60\n        /* \"#utility.yul\":1709:1718   */\n      dup5\n        /* \"#utility.yul\":1700:1707   */\n      dup7\n        /* \"#utility.yul\":1696:1719   */\n      sub\n        /* \"#utility.yul\":1692:1724   */\n      slt\n        /* \"#utility.yul\":1689:1808   */\n      iszero\n      tag_80\n      jumpi\n        /* \"#utility.yul\":1727:1806   */\n      tag_81\n      tag_74\n      jump\t// in\n    tag_81:\n        /* \"#utility.yul\":1689:1808   */\n    tag_80:\n        /* \"#utility.yul\":1847:1848   */\n      0x00\n        /* \"#utility.yul\":1872:1923   */\n      tag_82\n        /* \"#utility.yul\":1915:1922   */\n      dup7\n        /* \"#utility.yul\":1906:1912   */\n      dup3\n        /* \"#utility.yul\":1895:1904   */\n      dup8\n        /* \"#utility.yul\":1891:1913   */\n      add\n        /* \"#utility.yul\":1872:1923   */\n      tag_67\n      jump\t// in\n    tag_82:\n        /* \"#utility.yul\":1862:1923   */\n      swap4\n      pop\n        /* \"#utility.yul\":1818:1933   */\n      pop\n        /* \"#utility.yul\":1972:1974   */\n      0x20\n        /* \"#utility.yul\":1998:2050   */\n      tag_83\n        /* \"#utility.yul\":2042:2049   */\n      dup7\n        /* \"#utility.yul\":2033:2039   */\n      dup3\n        /* \"#utility.yul\":2022:2031   */\n      dup8\n        /* \"#utility.yul\":2018:2040   */\n      add\n        /* \"#utility.yul\":1998:2050   */\n      tag_63\n      jump\t// in\n    tag_83:\n        /* \"#utility.yul\":1988:2050   */\n      swap3\n      pop\n        /* \"#utility.yul\":1943:2060   */\n      pop\n        /* \"#utility.yul\":2099:2101   */\n      0x40\n        /* \"#utility.yul\":2125:2176   */\n      tag_84\n        /* \"#utility.yul\":2168:2175   */\n      dup7\n        /* \"#utility.yul\":2159:2165   */\n      dup3\n        /* \"#utility.yul\":2148:2157   */\n      dup8\n        /* \"#utility.yul\":2144:2166   */\n      add\n        /* \"#utility.yul\":2125:2176   */\n      tag_67\n      jump\t// in\n    tag_84:\n        /* \"#utility.yul\":2115:2176   */\n      swap2\n      pop\n        /* \"#utility.yul\":2070:2186   */\n      pop\n        /* \"#utility.yul\":1584:2193   */\n      swap3\n      pop\n      swap3\n      pop\n      swap3\n      jump\t// out\n        /* \"#utility.yul\":2199:2308   */\n    tag_85:\n        /* \"#utility.yul\":2280:2301   */\n      tag_87\n        /* \"#utility.yul\":2295:2300   */\n      dup2\n        /* \"#utility.yul\":2280:2301   */\n      tag_88\n      jump\t// in\n    tag_87:\n        /* \"#utility.yul\":2275:2278   */\n      dup3\n        /* \"#utility.yul\":2268:2302   */\n      mstore\n        /* \"#utility.yul\":2199:2308   */\n      pop\n      pop\n      jump\t// out\n        /* \"#utility.yul\":2314:2678   */\n    tag_89:\n        /* \"#utility.yul\":2402:2405   */\n      0x00\n        /* \"#utility.yul\":2430:2469   */\n      tag_91\n        /* \"#utility.yul\":2463:2468   */\n      dup3\n        /* \"#utility.yul\":2430:2469   */\n      tag_92\n      jump\t// in\n    tag_91:\n        /* \"#utility.yul\":2485:2556   */\n      tag_93\n        /* \"#utility.yul\":2549:2555   */\n      dup2\n        /* \"#utility.yul\":2544:2547   */\n      dup6\n        /* \"#utility.yul\":2485:2556   */\n      tag_94\n      jump\t// in\n    tag_93:\n        /* \"#utility.yul\":2478:2556   */\n      swap4\n      pop\n        /* \"#utility.yul\":2565:2617   */\n      tag_95\n        /* \"#utility.yul\":2610:2616   */\n      dup2\n        /* \"#utility.yul\":2605:2608   */\n      dup6\n        /* \"#utility.yul\":2598:2602   */\n      0x20\n        /* \"#utility.yul\":2591:2596   */\n      dup7\n        /* \"#utility.yul\":2587:2603   */\n      add\n        /* \"#utility.yul\":2565:2617   */\n      tag_96\n      jump\t// in\n    tag_95:\n        /* \"#utility.yul\":2642:2671   */\n      tag_97\n        /* \"#utility.yul\":2664:2670   */\n      dup2\n        /* \"#utility.yul\":2642:2671   */\n      tag_98\n      jump\t// in\n    tag_97:\n        /* \"#utility.yul\":2637:2640   */\n      dup5\n        /* \"#utility.yul\":2633:2672   */\n      add\n        /* \"#utility.yul\":2626:2672   */\n      swap2\n      pop\n        /* \"#utility.yul\":2406:2678   */\n      pop\n        /* \"#utility.yul\":2314:2678   */\n      swap3\n      swap2\n      pop\n      pop\n      jump\t// out\n        /* \"#utility.yul\":2684:3061   */\n    tag_99:\n        /* \"#utility.yul\":2790:2793   */\n      0x00\n        /* \"#utility.yul\":2818:2857   */\n      tag_101\n        /* \"#utility.yul\":2851:2856   */\n      dup3\n        /* \"#utility.yul\":2818:2857   */\n      tag_92\n      jump\t// in\n    tag_101:\n        /* \"#utility.yul\":2873:2962   */\n      tag_102\n        /* \"#utility.yul\":2955:2961   */\n      dup2\n        /* \"#utility.yul\":2950:2953   */\n      dup6\n        /* \"#utility.yul\":2873:2962   */\n      tag_103\n      jump\t// in\n    tag_102:\n        /* \"#utility.yul\":2866:2962   */\n      swap4\n      pop\n        /* \"#utility.yul\":2971:3023   */\n      tag_104\n        /* \"#utility.yul\":3016:3022   */\n      dup2\n        /* \"#utility.yul\":3011:3014   */\n      dup6\n        /* \"#utility.yul\":3004:3008   */\n      0x20\n        /* \"#utility.yul\":2997:3002   */\n      dup7\n        /* \"#utility.yul\":2993:3009   */\n      add\n        /* \"#utility.yul\":2971:3023   */\n      tag_96\n      jump\t// in\n    tag_104:\n        /* \"#utility.yul\":3048:3054   */\n      dup1\n        /* \"#utility.yul\":3043:3046   */\n      dup5\n        /* \"#utility.yul\":3039:3055   */\n      add\n        /* \"#utility.yul\":3032:3055   */\n      swap2\n      pop\n        /* \"#utility.yul\":2794:3061   */\n      pop\n        /* \"#utility.yul\":2684:3061   */\n      swap3\n      swap2\n      pop\n      pop\n      jump\t// out\n        /* \"#utility.yul\":3067:3179   */\n    tag_105:\n        /* \"#utility.yul\":3150:3172   */\n      tag_107\n        /* \"#utility.yul\":3166:3171   */\n      dup2\n        /* \"#utility.yul\":3150:3172   */\n      tag_108\n      jump\t// in\n    tag_107:\n        /* \"#utility.yul\":3145:3148   */\n      dup3\n        /* \"#utility.yul\":3138:3173   */\n      mstore\n        /* \"#utility.yul\":3067:3179   */\n      pop\n      pop\n      jump\t// out\n        /* \"#utility.yul\":3185:3620   */\n    tag_36:\n        /* \"#utility.yul\":3365:3368   */\n      0x00\n        /* \"#utility.yul\":3387:3482   */\n      tag_110\n        /* \"#utility.yul\":3478:3481   */\n      dup3\n        /* \"#utility.yul\":3469:3475   */\n      dup6\n        /* \"#utility.yul\":3387:3482   */\n      tag_99\n      jump\t// in\n    tag_110:\n        /* \"#utility.yul\":3380:3482   */\n      swap2\n      pop\n        /* \"#utility.yul\":3499:3594   */\n      tag_111\n        /* \"#utility.yul\":3590:3593   */\n      dup3\n        /* \"#utility.yul\":3581:3587   */\n      dup5\n        /* \"#utility.yul\":3499:3594   */\n      tag_99\n      jump\t// in\n    tag_111:\n        /* \"#utility.yul\":3492:3594   */\n      swap2\n      pop\n        /* \"#utility.yul\":3611:3614   */\n      dup2\n        /* \"#utility.yul\":3604:3614   */\n      swap1\n      pop\n        /* \"#utility.yul\":3185:3620   */\n      swap4\n      swap3\n      pop\n      pop\n      pop\n      jump\t// out\n        /* \"#utility.yul\":3626:3836   */\n    tag_25:\n        /* \"#utility.yul\":3713:3717   */\n      0x00\n        /* \"#utility.yul\":3751:3753   */\n      0x20\n        /* \"#utility.yul\":3740:3749   */\n      dup3\n        /* \"#utility.yul\":3736:3754   */\n      add\n        /* \"#utility.yul\":3728:3754   */\n      swap1\n      pop\n        /* \"#utility.yul\":3764:3829   */\n      tag_113\n        /* \"#utility.yul\":3826:3827   */\n      0x00\n        /* \"#utility.yul\":3815:3824   */\n      dup4\n        /* \"#utility.yul\":3811:3828   */\n      add\n        /* \"#utility.yul\":3802:3808   */\n      dup5\n        /* \"#utility.yul\":3764:3829   */\n      tag_85\n      jump\t// in\n    tag_113:\n        /* \"#utility.yul\":3626:3836   */\n      swap3\n      swap2\n      pop\n      pop\n      jump\t// out\n        /* \"#utility.yul\":3842:4155   */\n    tag_21:\n        /* \"#utility.yul\":3955:3959   */\n      0x00\n        /* \"#utility.yul\":3993:3995   */\n      0x20\n        /* \"#utility.yul\":3982:3991   */\n      dup3\n        /* \"#utility.yul\":3978:3996   */\n      add\n        /* \"#utility.yul\":3970:3996   */\n      swap1\n      pop\n        /* \"#utility.yul\":4042:4051   */\n      dup2\n        /* \"#utility.yul\":4036:4040   */\n      dup2\n        /* \"#utility.yul\":4032:4052   */\n      sub\n        /* \"#utility.yul\":4028:4029   */\n      0x00\n        /* \"#utility.yul\":4017:4026   */\n      dup4\n        /* \"#utility.yul\":4013:4030   */\n      add\n        /* \"#utility.yul\":4006:4053   */\n      mstore\n        /* \"#utility.yul\":4070:4148   */\n      tag_115\n        /* \"#utility.yul\":4143:4147   */\n      dup2\n        /* \"#utility.yul\":4134:4140   */\n      dup5\n        /* \"#utility.yul\":4070:4148   */\n      tag_89\n      jump\t// in\n    tag_115:\n        /* \"#utility.yul\":4062:4148   */\n      swap1\n      pop\n        /* \"#utility.yul\":3842:4155   */\n      swap3\n      swap2\n      pop\n      pop\n      jump\t// out\n        /* \"#utility.yul\":4161:4375   */\n    tag_15:\n        /* \"#utility.yul\":4250:4254   */\n      0x00\n        /* \"#utility.yul\":4288:4290   */\n      0x20\n        /* \"#utility.yul\":4277:4286   */\n      dup3\n        /* \"#utility.yul\":4273:4291   */\n      add\n        /* \"#utility.yul\":4265:4291   */\n      swap1\n      pop\n        /* \"#utility.yul\":4301:4368   */\n      tag_117\n        /* \"#utility.yul\":4365:4366   */\n      0x00\n        /* \"#utility.yul\":4354:4363   */\n      dup4\n        /* \"#utility.yul\":4350:4367   */\n      add\n        /* \"#utility.yul\":4341:4347   */\n      dup5\n        /* \"#utility.yul\":4301:4368   */\n      tag_105\n      jump\t// in\n    tag_117:\n        /* \"#utility.yul\":4161:4375   */\n      swap3\n      swap2\n      pop\n      pop\n      jump\t// out\n        /* \"#utility.yul\":4381:4510   */\n    tag_51:\n        /* \"#utility.yul\":4415:4421   */\n      0x00\n        /* \"#utility.yul\":4442:4462   */\n      tag_119\n      tag_120\n      jump\t// in\n    tag_119:\n        /* \"#utility.yul\":4432:4462   */\n      swap1\n      pop\n        /* \"#utility.yul\":4471:4504   */\n      tag_121\n        /* \"#utility.yul\":4499:4503   */\n      dup3\n        /* \"#utility.yul\":4491:4497   */\n      dup3\n        /* \"#utility.yul\":4471:4504   */\n      tag_122\n      jump\t// in\n    tag_121:\n        /* \"#utility.yul\":4381:4510   */\n      swap2\n      swap1\n      pop\n      jump\t// out\n        /* \"#utility.yul\":4516:4591   */\n    tag_120:\n        /* \"#utility.yul\":4549:4555   */\n      0x00\n        /* \"#utility.yul\":4582:4584   */\n      0x40\n        /* \"#utility.yul\":4576:4585   */\n      mload\n        /* \"#utility.yul\":4566:4585   */\n      swap1\n      pop\n        /* \"#utility.yul\":4516:4591   */\n      swap1\n      jump\t// out\n        /* \"#utility.yul\":4597:4905   */\n    tag_50:\n        /* \"#utility.yul\":4659:4663   */\n      0x00\n        /* \"#utility.yul\":4749:4767   */\n      0xffffffffffffffff\n        /* \"#utility.yul\":4741:4747   */\n      dup3\n        /* \"#utility.yul\":4738:4768   */\n      gt\n        /* \"#utility.yul\":4735:4791   */\n      iszero\n      tag_125\n      jumpi\n        /* \"#utility.yul\":4771:4789   */\n      tag_126\n      tag_127\n      jump\t// in\n    tag_126:\n        /* \"#utility.yul\":4735:4791   */\n    tag_125:\n        /* \"#utility.yul\":4809:4838   */\n      tag_128\n        /* \"#utility.yul\":4831:4837   */\n      dup3\n        /* \"#utility.yul\":4809:4838   */\n      tag_98\n      jump\t// in\n    tag_128:\n        /* \"#utility.yul\":4801:4838   */\n      swap1\n      pop\n        /* \"#utility.yul\":4893:4897   */\n      0x20\n        /* \"#utility.yul\":4887:4891   */\n      dup2\n        /* \"#utility.yul\":4883:4898   */\n      add\n        /* \"#utility.yul\":4875:4898   */\n      swap1\n      pop\n        /* \"#utility.yul\":4597:4905   */\n      swap2\n      swap1\n      pop\n      jump\t// out\n        /* \"#utility.yul\":4911:5010   */\n    tag_92:\n        /* \"#utility.yul\":4963:4969   */\n      0x00\n        /* \"#utility.yul\":4997:5002   */\n      dup2\n        /* \"#utility.yul\":4991:5003   */\n      mload\n        /* \"#utility.yul\":4981:5003   */\n      swap1\n      pop\n        /* \"#utility.yul\":4911:5010   */\n      swap2\n      swap1\n      pop\n      jump\t// out\n        /* \"#utility.yul\":5016:5185   */\n    tag_94:\n        /* \"#utility.yul\":5100:5111   */\n      0x00\n        /* \"#utility.yul\":5134:5140   */\n      dup3\n        /* \"#utility.yul\":5129:5132   */\n      dup3\n        /* \"#utility.yul\":5122:5141   */\n      mstore\n        /* \"#utility.yul\":5174:5178   */\n      0x20\n        /* \"#utility.yul\":5169:5172   */\n      dup3\n        /* \"#utility.yul\":5165:5179   */\n      add\n        /* \"#utility.yul\":5150:5179   */\n      swap1\n      pop\n        /* \"#utility.yul\":5016:5185   */\n      swap3\n      swap2\n      pop\n      pop\n      jump\t// out\n        /* \"#utility.yul\":5191:5339   */\n    tag_103:\n        /* \"#utility.yul\":5293:5304   */\n      0x00\n        /* \"#utility.yul\":5330:5333   */\n      dup2\n        /* \"#utility.yul\":5315:5333   */\n      swap1\n      pop\n        /* \"#utility.yul\":5191:5339   */\n      swap3\n      swap2\n      pop\n      pop\n      jump\t// out\n        /* \"#utility.yul\":5345:5582   */\n    tag_43:\n        /* \"#utility.yul\":5383:5386   */\n      0x00\n        /* \"#utility.yul\":5402:5420   */\n      tag_133\n        /* \"#utility.yul\":5418:5419   */\n      dup3\n        /* \"#utility.yul\":5402:5420   */\n      tag_108\n      jump\t// in\n    tag_133:\n        /* \"#utility.yul\":5397:5420   */\n      swap2\n      pop\n        /* \"#utility.yul\":5434:5452   */\n      tag_134\n        /* \"#utility.yul\":5450:5451   */\n      dup4\n        /* \"#utility.yul\":5434:5452   */\n      tag_108\n      jump\t// in\n    tag_134:\n        /* \"#utility.yul\":5429:5452   */\n      swap3\n      pop\n        /* \"#utility.yul\":5524:5525   */\n      dup3\n        /* \"#utility.yul\":5518:5522   */\n      0xff\n        /* \"#utility.yul\":5514:5526   */\n      sub\n        /* \"#utility.yul\":5511:5512   */\n      dup3\n        /* \"#utility.yul\":5508:5527   */\n      gt\n        /* \"#utility.yul\":5505:5550   */\n      iszero\n      tag_135\n      jumpi\n        /* \"#utility.yul\":5530:5548   */\n      tag_136\n      tag_137\n      jump\t// in\n    tag_136:\n        /* \"#utility.yul\":5505:5550   */\n    tag_135:\n        /* \"#utility.yul\":5574:5575   */\n      dup3\n        /* \"#utility.yul\":5571:5572   */\n      dup3\n        /* \"#utility.yul\":5567:5576   */\n      add\n        /* \"#utility.yul\":5560:5576   */\n      swap1\n      pop\n        /* \"#utility.yul\":5345:5582   */\n      swap3\n      swap2\n      pop\n      pop\n      jump\t// out\n        /* \"#utility.yul\":5588:5868   */\n    tag_32:\n        /* \"#utility.yul\":5626:5633   */\n      0x00\n        /* \"#utility.yul\":5649:5667   */\n      tag_139\n        /* \"#utility.yul\":5665:5666   */\n      dup3\n        /* \"#utility.yul\":5649:5667   */\n      tag_108\n      jump\t// in\n    tag_139:\n        /* \"#utility.yul\":5644:5667   */\n      swap2\n      pop\n        /* \"#utility.yul\":5681:5699   */\n      tag_140\n        /* \"#utility.yul\":5697:5698   */\n      dup4\n        /* \"#utility.yul\":5681:5699   */\n      tag_108\n      jump\t// in\n    tag_140:\n        /* \"#utility.yul\":5676:5699   */\n      swap3\n      pop\n        /* \"#utility.yul\":5805:5806   */\n      dup2\n        /* \"#utility.yul\":5799:5803   */\n      0xff\n        /* \"#utility.yul\":5795:5807   */\n      div\n        /* \"#utility.yul\":5792:5793   */\n      dup4\n        /* \"#utility.yul\":5789:5808   */\n      gt\n        /* \"#utility.yul\":5784:5785   */\n      dup3\n        /* \"#utility.yul\":5777:5786   */\n      iszero\n        /* \"#utility.yul\":5770:5787   */\n      iszero\n        /* \"#utility.yul\":5766:5809   */\n      and\n        /* \"#utility.yul\":5763:5832   */\n      iszero\n      tag_141\n      jumpi\n        /* \"#utility.yul\":5812:5830   */\n      tag_142\n      tag_137\n      jump\t// in\n    tag_142:\n        /* \"#utility.yul\":5763:5832   */\n    tag_141:\n        /* \"#utility.yul\":5860:5861   */\n      dup3\n        /* \"#utility.yul\":5857:5858   */\n      dup3\n        /* \"#utility.yul\":5853:5862   */\n      mul\n        /* \"#utility.yul\":5842:5862   */\n      swap1\n      pop\n        /* \"#utility.yul\":5588:5868   */\n      swap3\n      swap2\n      pop\n      pop\n      jump\t// out\n        /* \"#utility.yul\":5874:6333   */\n    tag_39:\n        /* \"#utility.yul\":5911:5915   */\n      0x00\n        /* \"#utility.yul\":5931:5948   */\n      tag_144\n        /* \"#utility.yul\":5946:5947   */\n      dup3\n        /* \"#utility.yul\":5931:5948   */\n      tag_88\n      jump\t// in\n    tag_144:\n        /* \"#utility.yul\":5926:5948   */\n      swap2\n      pop\n        /* \"#utility.yul\":5962:5979   */\n      tag_145\n        /* \"#utility.yul\":5977:5978   */\n      dup4\n        /* \"#utility.yul\":5962:5979   */\n      tag_88\n      jump\t// in\n    tag_145:\n        /* \"#utility.yul\":5957:5979   */\n      swap3\n      pop\n        /* \"#utility.yul\":6149:6150   */\n      dup3\n        /* \"#utility.yul\":6081:6147   */\n      0xffffffffffffffffffffffffffffffffffffffffffffffffffffffffffffff80\n        /* \"#utility.yul\":6077:6151   */\n      add\n        /* \"#utility.yul\":6074:6075   */\n      dup3\n        /* \"#utility.yul\":6070:6152   */\n      slt\n        /* \"#utility.yul\":6065:6066   */\n      0x00\n        /* \"#utility.yul\":6062:6063   */\n      dup5\n        /* \"#utility.yul\":6058:6067   */\n      slt\n        /* \"#utility.yul\":6051:6068   */\n      iszero\n        /* \"#utility.yul\":6047:6153   */\n      and\n        /* \"#utility.yul\":6044:6176   */\n      iszero\n      tag_146\n      jumpi\n        /* \"#utility.yul\":6156:6174   */\n      tag_147\n      tag_137\n      jump\t// in\n    tag_147:\n        /* \"#utility.yul\":6044:6176   */\n    tag_146:\n        /* \"#utility.yul\":6273:6274   */\n      dup3\n        /* \"#utility.yul\":6267:6271   */\n      0x7f\n        /* \"#utility.yul\":6263:6275   */\n      add\n        /* \"#utility.yul\":6260:6261   */\n      dup3\n        /* \"#utility.yul\":6256:6276   */\n      sgt\n        /* \"#utility.yul\":6252:6253   */\n      0x00\n        /* \"#utility.yul\":6249:6250   */\n      dup5\n        /* \"#utility.yul\":6245:6254   */\n      slt\n        /* \"#utility.yul\":6241:6277   */\n      and\n        /* \"#utility.yul\":6238:6300   */\n      iszero\n      tag_148\n      jumpi\n        /* \"#utility.yul\":6280:6298   */\n      tag_149\n      tag_137\n      jump\t// in\n    tag_149:\n        /* \"#utility.yul\":6238:6300   */\n    tag_148:\n        /* \"#utility.yul\":6325:6326   */\n      dup3\n        /* \"#utility.yul\":6322:6323   */\n      dup3\n        /* \"#utility.yul\":6318:6327   */\n      sub\n        /* \"#utility.yul\":6310:6327   */\n      swap1\n      pop\n        /* \"#utility.yul\":5874:6333   */\n      swap3\n      swap2\n      pop\n      pop\n      jump\t// out\n        /* \"#utility.yul\":6339:6428   */\n    tag_88:\n        /* \"#utility.yul\":6373:6380   */\n      0x00\n        /* \"#utility.yul\":6416:6421   */\n      dup2\n        /* \"#utility.yul\":6413:6414   */\n      0x00\n        /* \"#utility.yul\":6402:6422   */\n      signextend\n        /* \"#utility.yul\":6391:6422   */\n      swap1\n      pop\n        /* \"#utility.yul\":6339:6428   */\n      swap2\n      swap1\n      pop\n      jump\t// out\n        /* \"#utility.yul\":6434:6523   */\n    tag_151:\n        /* \"#utility.yul\":6470:6477   */\n      0x00\n        /* \"#utility.yul\":6510:6516   */\n      0xffff\n        /* \"#utility.yul\":6503:6508   */\n      dup3\n        /* \"#utility.yul\":6499:6517   */\n      and\n        /* \"#utility.yul\":6488:6517   */\n      swap1\n      pop\n        /* \"#utility.yul\":6434:6523   */\n      swap2\n      swap1\n      pop\n      jump\t// out\n        /* \"#utility.yul\":6529:6615   */\n    tag_108:\n        /* \"#utility.yul\":6564:6571   */\n      0x00\n        /* \"#utility.yul\":6604:6608   */\n      0xff\n        /* \"#utility.yul\":6597:6602   */\n      dup3\n        /* \"#utility.yul\":6593:6609   */\n      and\n        /* \"#utility.yul\":6582:6609   */\n      swap1\n      pop\n        /* \"#utility.yul\":6529:6615   */\n      swap2\n      swap1\n      pop\n      jump\t// out\n        /* \"#utility.yul\":6621:6775   */\n    tag_56:\n        /* \"#utility.yul\":6705:6711   */\n      dup3\n        /* \"#utility.yul\":6700:6703   */\n      dup2\n        /* \"#utility.yul\":6695:6698   */\n      dup4\n        /* \"#utility.yul\":6682:6712   */\n      calldatacopy\n        /* \"#utility.yul\":6767:6768   */\n      0x00\n        /* \"#utility.yul\":6758:6764   */\n      dup4\n        /* \"#utility.yul\":6753:6756   */\n      dup4\n        /* \"#utility.yul\":6749:6765   */\n      add\n        /* \"#utility.yul\":6742:6769   */\n      mstore\n        /* \"#utility.yul\":6621:6775   */\n      pop\n      pop\n      pop\n      jump\t// out\n        /* \"#utility.yul\":6781:7088   */\n    tag_96:\n        /* \"#utility.yul\":6849:6850   */\n      0x00\n        /* \"#utility.yul\":6859:6972   */\n    tag_156:\n        /* \"#utility.yul\":6873:6879   */\n      dup4\n        /* \"#utility.yul\":6870:6871   */\n      dup2\n        /* \"#utility.yul\":6867:6880   */\n      lt\n        /* \"#utility.yul\":6859:6972   */\n      iszero\n      tag_158\n      jumpi\n        /* \"#utility.yul\":6958:6959   */\n      dup1\n        /* \"#utility.yul\":6953:6956   */\n      dup3\n        /* \"#utility.yul\":6949:6960   */\n      add\n        /* \"#utility.yul\":6943:6961   */\n      mload\n        /* \"#utility.yul\":6939:6940   */\n      dup2\n        /* \"#utility.yul\":6934:6937   */\n      dup5\n        /* \"#utility.yul\":6930:6941   */\n      add\n        /* \"#utility.yul\":6923:6962   */\n      mstore\n        /* \"#utility.yul\":6895:6897   */\n      0x20\n        /* \"#utility.yul\":6892:6893   */\n      dup2\n        /* \"#utility.yul\":6888:6898   */\n      add\n        /* \"#utility.yul\":6883:6898   */\n      swap1\n      pop\n        /* \"#utility.yul\":6859:6972   */\n      jump(tag_156)\n    tag_158:\n        /* \"#utility.yul\":6990:6996   */\n      dup4\n        /* \"#utility.yul\":6987:6988   */\n      dup2\n        /* \"#utility.yul\":6984:6997   */\n      gt\n        /* \"#utility.yul\":6981:7082   */\n      iszero\n      tag_159\n      jumpi\n        /* \"#utility.yul\":7070:7071   */\n      0x00\n        /* \"#utility.yul\":7061:7067   */\n      dup5\n        /* \"#utility.yul\":7056:7059   */\n      dup5\n        /* \"#utility.yul\":7052:7068   */\n      add\n        /* \"#utility.yul\":7045:7072   */\n      mstore\n        /* \"#utility.yul\":6981:7082   */\n    tag_159:\n        /* \"#utility.yul\":6830:7088   */\n      pop\n        /* \"#utility.yul\":6781:7088   */\n      pop\n      pop\n      pop\n      jump\t// out\n        /* \"#utility.yul\":7094:7375   */\n    tag_122:\n        /* \"#utility.yul\":7177:7204   */\n      tag_161\n        /* \"#utility.yul\":7199:7203   */\n      dup3\n        /* \"#utility.yul\":7177:7204   */\n      tag_98\n      jump\t// in\n    tag_161:\n        /* \"#utility.yul\":7169:7175   */\n      dup2\n        /* \"#utility.yul\":7165:7205   */\n      add\n        /* \"#utility.yul\":7307:7313   */\n      dup2\n        /* \"#utility.yul\":7295:7305   */\n      dup2\n        /* \"#utility.yul\":7292:7314   */\n      lt\n        /* \"#utility.yul\":7271:7289   */\n      0xffffffffffffffff\n        /* \"#utility.yul\":7259:7269   */\n      dup3\n        /* \"#utility.yul\":7256:7290   */\n      gt\n        /* \"#utility.yul\":7253:7315   */\n      or\n        /* \"#utility.yul\":7250:7338   */\n      iszero\n      tag_162\n      jumpi\n        /* \"#utility.yul\":7318:7336   */\n      tag_163\n      tag_127\n      jump\t// in\n    tag_163:\n        /* \"#utility.yul\":7250:7338   */\n    tag_162:\n        /* \"#utility.yul\":7358:7368   */\n      dup1\n        /* \"#utility.yul\":7354:7356   */\n      0x40\n        /* \"#utility.yul\":7347:7369   */\n      mstore\n        /* \"#utility.yul\":7137:7375   */\n      pop\n        /* \"#utility.yul\":7094:7375   */\n      pop\n      pop\n      jump\t// out\n        /* \"#utility.yul\":7381:7561   */\n    tag_137:\n        /* \"#utility.yul\":7429:7506   */\n      0x4e487b7100000000000000000000000000000000000000000000000000000000\n        /* \"#utility.yul\":7426:7427   */\n      0x00\n        /* \"#utility.yul\":7419:7507   */\n      mstore\n        /* \"#utility.yul\":7526:7530   */\n      0x11\n        /* \"#utility.yul\":7523:7524   */\n      0x04\n        /* \"#utility.yul\":7516:7531   */\n      mstore\n        /* \"#utility.yul\":7550:7554   */\n      0x24\n        /* \"#utility.yul\":7547:7548   */\n      0x00\n        /* \"#utility.yul\":7540:7555   */\n      revert\n        /* \"#utility.yul\":7567:7747   */\n    tag_127:\n        /* \"#utility.yul\":7615:7692   */\n      0x4e487b7100000000000000000000000000000000000000000000000000000000\n        /* \"#utility.yul\":7612:7613   */\n      0x00\n        /* \"#utility.yul\":7605:7693   */\n      mstore\n        /* \"#utility.yul\":7712:7716   */\n      0x41\n        /* \"#utility.yul\":7709:7710   */\n      0x04\n        /* \"#utility.yul\":7702:7717   */\n      mstore\n        /* \"#utility.yul\":7736:7740   */\n      0x24\n        /* \"#utility.yul\":7733:7734   */\n      0x00\n        /* \"#utility.yul\":7726:7741   */\n      revert\n        /* \"#utility.yul\":7753:7870   */\n    tag_61:\n        /* \"#utility.yul\":7862:7863   */\n      0x00\n        /* \"#utility.yul\":7859:7860   */\n      dup1\n        /* \"#utility.yul\":7852:7864   */\n      revert\n        /* \"#utility.yul\":7876:7993   */\n    tag_54:\n        /* \"#utility.yul\":7985:7986   */\n      0x00\n        /* \"#utility.yul\":7982:7983   */\n      dup1\n        /* \"#utility.yul\":7975:7987   */\n      revert\n        /* \"#utility.yul\":7999:8116   */\n    tag_77:\n        /* \"#utility.yul\":8108:8109   */\n      0x00\n        /* \"#utility.yul\":8105:8106   */\n      dup1\n        /* \"#utility.yul\":8098:8110   */\n      revert\n        /* \"#utility.yul\":8122:8239   */\n    tag_74:\n        /* \"#utility.yul\":8231:8232   */\n      0x00\n        /* \"#utility.yul\":8228:8229   */\n      dup1\n        /* \"#utility.yul\":8221:8233   */\n      revert\n        /* \"#utility.yul\":8245:8347   */\n    tag_98:\n        /* \"#utility.yul\":8286:8292   */\n      0x00\n        /* \"#utility.yul\":8337:8339   */\n      0x1f\n        /* \"#utility.yul\":8333:8340   */\n      not\n        /* \"#utility.yul\":8328:8330   */\n      0x1f\n        /* \"#utility.yul\":8321:8326   */\n      dup4\n        /* \"#utility.yul\":8317:8331   */\n      add\n        /* \"#utility.yul\":8313:8341   */\n      and\n        /* \"#utility.yul\":8303:8341   */\n      swap1\n      pop\n        /* \"#utility.yul\":8245:8347   */\n      swap2\n      swap1\n      pop\n      jump\t// out\n        /* \"#utility.yul\":8353:8473   */\n    tag_66:\n        /* \"#utility.yul\":8425:8448   */\n      tag_172\n        /* \"#utility.yul\":8442:8447   */\n      dup2\n        /* \"#utility.yul\":8425:8448   */\n      tag_151\n      jump\t// in\n    tag_172:\n        /* \"#utility.yul\":8418:8423   */\n      dup2\n        /* \"#utility.yul\":8415:8449   */\n      eq\n        /* \"#utility.yul\":8405:8467   */\n      tag_173\n      jumpi\n        /* \"#utility.yul\":8463:8464   */\n      0x00\n        /* \"#utility.yul\":8460:8461   */\n      dup1\n        /* \"#utility.yul\":8453:8465   */\n      revert\n        /* \"#utility.yul\":8405:8467   */\n    tag_173:\n        /* \"#utility.yul\":8353:8473   */\n      pop\n      jump\t// out\n        /* \"#utility.yul\":8479:8597   */\n    tag_70:\n        /* \"#utility.yul\":8550:8572   */\n      tag_175\n        /* \"#utility.yul\":8566:8571   */\n      dup2\n        /* \"#utility.yul\":8550:8572   */\n      tag_108\n      jump\t// in\n    tag_175:\n        /* \"#utility.yul\":8543:8548   */\n      dup2\n        /* \"#utility.yul\":8540:8573   */\n      eq\n        /* \"#utility.yul\":8530:8591   */\n      tag_176\n      jumpi\n        /* \"#utility.yul\":8587:8588   */\n      0x00\n        /* \"#utility.yul\":8584:8585   */\n      dup1\n        /* \"#utility.yul\":8577:8589   */\n      revert\n        /* \"#utility.yul\":8530:8591   */\n    tag_176:\n        /* \"#utility.yul\":8479:8597   */\n      pop\n      jump\t// out\n\n    auxdata: 0xa2646970667358221220700c5a5e78a42906a0fe624cc454affc440f4a8dd4c7ad75392336a715d9d80f64736f6c63430008070033\n}\n",
				"bytecode": {
					"linkReferences": {},
					"object": "608060405234801561001057600080fd5b506107dc806100206000396000f3fe608060405234801561001057600080fd5b50600436106100575760003560e01c806327f234161461005c578063704f487c14610078578063c3a9b1c514610096578063e19a4ef4146100c6578063f72adfb7146100e4575b600080fd5b6100766004803603810190610071919061039f565b610102565b005b610080610159565b60405161008d91906104db565b60405180910390f35b6100b060048036038101906100ab9190610356565b6101a2565b6040516100bd91906104b9565b60405180910390f35b6100ce610214565b6040516100db919061049e565b60405180910390f35b6100ec610273565b6040516100f991906104db565b60405180910390f35b826000806101000a81548160ff021916908360ff16021790555081600060016101000a81548161ffff021916908361ffff16021790555080600060036101000a81548160ff021916908360ff160217905550505050565b60008060039054906101000a900460ff16600060019054906101000a900461ffff1660008054906101000a900460ff1661019391906105aa565b61019d91906105aa565b905090565b606060006040518060400160405280600681526020017f48656c6c6f20000000000000000000000000000000000000000000000000000081525090506000839050600082826040516020016101f892919061047a565b6040516020818303038152906040529050809350505050919050565b60008060008054906101000a900460ff16905060008060019054906101000a900461ffff16905060008060039054906101000a900460ff169050600081838561025d91906105e5565b61026791906105e5565b90508094505050505090565b60008060039054906101000a900460ff16600060019054906101000a900461ffff1660008054906101000a900460ff166102ad9190610573565b6102b79190610573565b905090565b60006102cf6102ca8461051b565b6104f6565b9050828152602081018484840111156102eb576102ea610758565b5b6102f6848285610682565b509392505050565b600082601f83011261031357610312610753565b5b81356103238482602086016102bc565b91505092915050565b60008135905061033b81610778565b92915050565b6000813590506103508161078f565b92915050565b60006020828403121561036c5761036b610762565b5b600082013567ffffffffffffffff81111561038a5761038961075d565b5b610396848285016102fe565b91505092915050565b6000806000606084860312156103b8576103b7610762565b5b60006103c686828701610341565b93505060206103d78682870161032c565b92505060406103e886828701610341565b9150509250925092565b6103fb8161065a565b82525050565b600061040c8261054c565b6104168185610557565b9350610426818560208601610691565b61042f81610767565b840191505092915050565b60006104458261054c565b61044f8185610568565b935061045f818560208601610691565b80840191505092915050565b61047481610675565b82525050565b6000610486828561043a565b9150610492828461043a565b91508190509392505050565b60006020820190506104b360008301846103f2565b92915050565b600060208201905081810360008301526104d38184610401565b905092915050565b60006020820190506104f0600083018461046b565b92915050565b6000610500610511565b905061050c82826106c4565b919050565b6000604051905090565b600067ffffffffffffffff82111561053657610535610724565b5b61053f82610767565b9050602081019050919050565b600081519050919050565b600082825260208201905092915050565b600081905092915050565b600061057e82610675565b915061058983610675565b92508260ff0382111561059f5761059e6106f5565b5b828201905092915050565b60006105b582610675565b91506105c083610675565b92508160ff04831182151516156105da576105d96106f5565b5b828202905092915050565b60006105f08261065a565b91506105fb8361065a565b9250827fffffffffffffffffffffffffffffffffffffffffffffffffffffffffffffff8001821260008412151615610636576106356106f5565b5b82607f01821360008412161561064f5761064e6106f5565b5b828203905092915050565b60008160000b9050919050565b600061ffff82169050919050565b600060ff82169050919050565b82818337600083830152505050565b60005b838110156106af578082015181840152602081019050610694565b838111156106be576000848401525b50505050565b6106cd82610767565b810181811067ffffffffffffffff821117156106ec576106eb610724565b5b80604052505050565b7f4e487b7100000000000000000000000000000000000000000000000000000000600052601160045260246000fd5b7f4e487b7100000000000000000000000000000000000000000000000000000000600052604160045260246000fd5b600080fd5b600080fd5b600080fd5b600080fd5b6000601f19601f8301169050919050565b61078181610667565b811461078c57600080fd5b50565b61079881610675565b81146107a357600080fd5b5056fea2646970667358221220700c5a5e78a42906a0fe624cc454affc440f4a8dd4c7ad75392336a715d9d80f64736f6c63430008070033",
					"opcodes": "PUSH1 0x80 PUSH1 0x40 MSTORE CALLVALUE DUP1 ISZERO PUSH2 0x10 JUMPI PUSH1 0x0 DUP1 REVERT JUMPDEST POP PUSH2 0x7DC DUP1 PUSH2 0x20 PUSH1 0x0 CODECOPY PUSH1 0x0 RETURN INVALID PUSH1 0x80 PUSH1 0x40 MSTORE CALLVALUE DUP1 ISZERO PUSH2 0x10 JUMPI PUSH1 0x0 DUP1 REVERT JUMPDEST POP PUSH1 0x4 CALLDATASIZE LT PUSH2 0x57 JUMPI PUSH1 0x0 CALLDATALOAD PUSH1 0xE0 SHR DUP1 PUSH4 0x27F23416 EQ PUSH2 0x5C JUMPI DUP1 PUSH4 0x704F487C EQ PUSH2 0x78 JUMPI DUP1 PUSH4 0xC3A9B1C5 EQ PUSH2 0x96 JUMPI DUP1 PUSH4 0xE19A4EF4 EQ PUSH2 0xC6 JUMPI DUP1 PUSH4 0xF72ADFB7 EQ PUSH2 0xE4 JUMPI JUMPDEST PUSH1 0x0 DUP1 REVERT JUMPDEST PUSH2 0x76 PUSH1 0x4 DUP1 CALLDATASIZE SUB DUP2 ADD SWAP1 PUSH2 0x71 SWAP2 SWAP1 PUSH2 0x39F JUMP JUMPDEST PUSH2 0x102 JUMP JUMPDEST STOP JUMPDEST PUSH2 0x80 PUSH2 0x159 JUMP JUMPDEST PUSH1 0x40 MLOAD PUSH2 0x8D SWAP2 SWAP1 PUSH2 0x4DB JUMP JUMPDEST PUSH1 0x40 MLOAD DUP1 SWAP2 SUB SWAP1 RETURN JUMPDEST PUSH2 0xB0 PUSH1 0x4 DUP1 CALLDATASIZE SUB DUP2 ADD SWAP1 PUSH2 0xAB SWAP2 SWAP1 PUSH2 0x356 JUMP JUMPDEST PUSH2 0x1A2 JUMP JUMPDEST PUSH1 0x40 MLOAD PUSH2 0xBD SWAP2 SWAP1 PUSH2 0x4B9 JUMP JUMPDEST PUSH1 0x40 MLOAD DUP1 SWAP2 SUB SWAP1 RETURN JUMPDEST PUSH2 0xCE PUSH2 0x214 JUMP JUMPDEST PUSH1 0x40 MLOAD PUSH2 0xDB SWAP2 SWAP1 PUSH2 0x49E JUMP JUMPDEST PUSH1 0x40 MLOAD DUP1 SWAP2 SUB SWAP1 RETURN JUMPDEST PUSH2 0xEC PUSH2 0x273 JUMP JUMPDEST PUSH1 0x40 MLOAD PUSH2 0xF9 SWAP2 SWAP1 PUSH2 0x4DB JUMP JUMPDEST PUSH1 0x40 MLOAD DUP1 SWAP2 SUB SWAP1 RETURN JUMPDEST DUP3 PUSH1 0x0 DUP1 PUSH2 0x100 EXP DUP2 SLOAD DUP2 PUSH1 0xFF MUL NOT AND SWAP1 DUP4 PUSH1 0xFF AND MUL OR SWAP1 SSTORE POP DUP2 PUSH1 0x0 PUSH1 0x1 PUSH2 0x100 EXP DUP2 SLOAD DUP2 PUSH2 0xFFFF MUL NOT AND SWAP1 DUP4 PUSH2 0xFFFF AND MUL OR SWAP1 SSTORE POP DUP1 PUSH1 0x0 PUSH1 0x3 PUSH2 0x100 EXP DUP2 SLOAD DUP2 PUSH1 0xFF MUL NOT AND SWAP1 DUP4 PUSH1 0xFF AND MUL OR SWAP1 SSTORE POP POP POP POP JUMP JUMPDEST PUSH1 0x0 DUP1 PUSH1 0x3 SWAP1 SLOAD SWAP1 PUSH2 0x100 EXP SWAP1 DIV PUSH1 0xFF AND PUSH1 0x0 PUSH1 0x1 SWAP1 SLOAD SWAP1 PUSH2 0x100 EXP SWAP1 DIV PUSH2 0xFFFF AND PUSH1 0x0 DUP1 SLOAD SWAP1 PUSH2 0x100 EXP SWAP1 DIV PUSH1 0xFF AND PUSH2 0x193 SWAP2 SWAP1 PUSH2 0x5AA JUMP JUMPDEST PUSH2 0x19D SWAP2 SWAP1 PUSH2 0x5AA JUMP JUMPDEST SWAP1 POP SWAP1 JUMP JUMPDEST PUSH1 0x60 PUSH1 0x0 PUSH1 0x40 MLOAD DUP1 PUSH1 0x40 ADD PUSH1 0x40 MSTORE DUP1 PUSH1 0x6 DUP2 MSTORE PUSH1 0x20 ADD PUSH32 0x48656C6C6F200000000000000000000000000000000000000000000000000000 DUP2 MSTORE POP SWAP1 POP PUSH1 0x0 DUP4 SWAP1 POP PUSH1 0x0 DUP3 DUP3 PUSH1 0x40 MLOAD PUSH1 0x20 ADD PUSH2 0x1F8 SWAP3 SWAP2 SWAP1 PUSH2 0x47A JUMP JUMPDEST PUSH1 0x40 MLOAD PUSH1 0x20 DUP2 DUP4 SUB SUB DUP2 MSTORE SWAP1 PUSH1 0x40 MSTORE SWAP1 POP DUP1 SWAP4 POP POP POP POP SWAP2 SWAP1 POP JUMP JUMPDEST PUSH1 0x0 DUP1 PUSH1 0x0 DUP1 SLOAD SWAP1 PUSH2 0x100 EXP SWAP1 DIV PUSH1 0xFF AND SWAP1 POP PUSH1 0x0 DUP1 PUSH1 0x1 SWAP1 SLOAD SWAP1 PUSH2 0x100 EXP SWAP1 DIV PUSH2 0xFFFF AND SWAP1 POP PUSH1 0x0 DUP1 PUSH1 0x3 SWAP1 SLOAD SWAP1 PUSH2 0x100 EXP SWAP1 DIV PUSH1 0xFF AND SWAP1 POP PUSH1 0x0 DUP2 DUP4 DUP6 PUSH2 0x25D SWAP2 SWAP1 PUSH2 0x5E5 JUMP JUMPDEST PUSH2 0x267 SWAP2 SWAP1 PUSH2 0x5E5 JUMP JUMPDEST SWAP1 POP DUP1 SWAP5 POP POP POP POP POP SWAP1 JUMP JUMPDEST PUSH1 0x0 DUP1 PUSH1 0x3 SWAP1 SLOAD SWAP1 PUSH2 0x100 EXP SWAP1 DIV PUSH1 0xFF AND PUSH1 0x0 PUSH1 0x1 SWAP1 SLOAD SWAP1 PUSH2 0x100 EXP SWAP1 DIV PUSH2 0xFFFF AND PUSH1 0x0 DUP1 SLOAD SWAP1 PUSH2 0x100 EXP SWAP1 DIV PUSH1 0xFF AND PUSH2 0x2AD SWAP2 SWAP1 PUSH2 0x573 JUMP JUMPDEST PUSH2 0x2B7 SWAP2 SWAP1 PUSH2 0x573 JUMP JUMPDEST SWAP1 POP SWAP1 JUMP JUMPDEST PUSH1 0x0 PUSH2 0x2CF PUSH2 0x2CA DUP5 PUSH2 0x51B JUMP JUMPDEST PUSH2 0x4F6 JUMP JUMPDEST SWAP1 POP DUP3 DUP2 MSTORE PUSH1 0x20 DUP2 ADD DUP5 DUP5 DUP5 ADD GT ISZERO PUSH2 0x2EB JUMPI PUSH2 0x2EA PUSH2 0x758 JUMP JUMPDEST JUMPDEST PUSH2 0x2F6 DUP5 DUP3 DUP6 PUSH2 0x682 JUMP JUMPDEST POP SWAP4 SWAP3 POP POP POP JUMP JUMPDEST PUSH1 0x0 DUP3 PUSH1 0x1F DUP4 ADD SLT PUSH2 0x313 JUMPI PUSH2 0x312 PUSH2 0x753 JUMP JUMPDEST JUMPDEST DUP2 CALLDATALOAD PUSH2 0x323 DUP5 DUP3 PUSH1 0x20 DUP7 ADD PUSH2 0x2BC JUMP JUMPDEST SWAP2 POP POP SWAP3 SWAP2 POP POP JUMP JUMPDEST PUSH1 0x0 DUP2 CALLDATALOAD SWAP1 POP PUSH2 0x33B DUP2 PUSH2 0x778 JUMP JUMPDEST SWAP3 SWAP2 POP POP JUMP JUMPDEST PUSH1 0x0 DUP2 CALLDATALOAD SWAP1 POP PUSH2 0x350 DUP2 PUSH2 0x78F JUMP JUMPDEST SWAP3 SWAP2 POP POP JUMP JUMPDEST PUSH1 0x0 PUSH1 0x20 DUP3 DUP5 SUB SLT ISZERO PUSH2 0x36C JUMPI PUSH2 0x36B PUSH2 0x762 JUMP JUMPDEST JUMPDEST PUSH1 0x0 DUP3 ADD CALLDATALOAD PUSH8 0xFFFFFFFFFFFFFFFF DUP2 GT ISZERO PUSH2 0x38A JUMPI PUSH2 0x389 PUSH2 0x75D JUMP JUMPDEST JUMPDEST PUSH2 0x396 DUP5 DUP3 DUP6 ADD PUSH2 0x2FE JUMP JUMPDEST SWAP2 POP POP SWAP3 SWAP2 POP POP JUMP JUMPDEST PUSH1 0x0 DUP1 PUSH1 0x0 PUSH1 0x60 DUP5 DUP7 SUB SLT ISZERO PUSH2 0x3B8 JUMPI PUSH2 0x3B7 PUSH2 0x762 JUMP JUMPDEST JUMPDEST PUSH1 0x0 PUSH2 0x3C6 DUP7 DUP3 DUP8 ADD PUSH2 0x341 JUMP JUMPDEST SWAP4 POP POP PUSH1 0x20 PUSH2 0x3D7 DUP7 DUP3 DUP8 ADD PUSH2 0x32C JUMP JUMPDEST SWAP3 POP POP PUSH1 0x40 PUSH2 0x3E8 DUP7 DUP3 DUP8 ADD PUSH2 0x341 JUMP JUMPDEST SWAP2 POP POP SWAP3 POP SWAP3 POP SWAP3 JUMP JUMPDEST PUSH2 0x3FB DUP2 PUSH2 0x65A JUMP JUMPDEST DUP3 MSTORE POP POP JUMP JUMPDEST PUSH1 0x0 PUSH2 0x40C DUP3 PUSH2 0x54C JUMP JUMPDEST PUSH2 0x416 DUP2 DUP6 PUSH2 0x557 JUMP JUMPDEST SWAP4 POP PUSH2 0x426 DUP2 DUP6 PUSH1 0x20 DUP7 ADD PUSH2 0x691 JUMP JUMPDEST PUSH2 0x42F DUP2 PUSH2 0x767 JUMP JUMPDEST DUP5 ADD SWAP2 POP POP SWAP3 SWAP2 POP POP JUMP JUMPDEST PUSH1 0x0 PUSH2 0x445 DUP3 PUSH2 0x54C JUMP JUMPDEST PUSH2 0x44F DUP2 DUP6 PUSH2 0x568 JUMP JUMPDEST SWAP4 POP PUSH2 0x45F DUP2 DUP6 PUSH1 0x20 DUP7 ADD PUSH2 0x691 JUMP JUMPDEST DUP1 DUP5 ADD SWAP2 POP POP SWAP3 SWAP2 POP POP JUMP JUMPDEST PUSH2 0x474 DUP2 PUSH2 0x675 JUMP JUMPDEST DUP3 MSTORE POP POP JUMP JUMPDEST PUSH1 0x0 PUSH2 0x486 DUP3 DUP6 PUSH2 0x43A JUMP JUMPDEST SWAP2 POP PUSH2 0x492 DUP3 DUP5 PUSH2 0x43A JUMP JUMPDEST SWAP2 POP DUP2 SWAP1 POP SWAP4 SWAP3 POP POP POP JUMP JUMPDEST PUSH1 0x0 PUSH1 0x20 DUP3 ADD SWAP1 POP PUSH2 0x4B3 PUSH1 0x0 DUP4 ADD DUP5 PUSH2 0x3F2 JUMP JUMPDEST SWAP3 SWAP2 POP POP JUMP JUMPDEST PUSH1 0x0 PUSH1 0x20 DUP3 ADD SWAP1 POP DUP2 DUP2 SUB PUSH1 0x0 DUP4 ADD MSTORE PUSH2 0x4D3 DUP2 DUP5 PUSH2 0x401 JUMP JUMPDEST SWAP1 POP SWAP3 SWAP2 POP POP JUMP JUMPDEST PUSH1 0x0 PUSH1 0x20 DUP3 ADD SWAP1 POP PUSH2 0x4F0 PUSH1 0x0 DUP4 ADD DUP5 PUSH2 0x46B JUMP JUMPDEST SWAP3 SWAP2 POP POP JUMP JUMPDEST PUSH1 0x0 PUSH2 0x500 PUSH2 0x511 JUMP JUMPDEST SWAP1 POP PUSH2 0x50C DUP3 DUP3 PUSH2 0x6C4 JUMP JUMPDEST SWAP2 SWAP1 POP JUMP JUMPDEST PUSH1 0x0 PUSH1 0x40 MLOAD SWAP1 POP SWAP1 JUMP JUMPDEST PUSH1 0x0 PUSH8 0xFFFFFFFFFFFFFFFF DUP3 GT ISZERO PUSH2 0x536 JUMPI PUSH2 0x535 PUSH2 0x724 JUMP JUMPDEST JUMPDEST PUSH2 0x53F DUP3 PUSH2 0x767 JUMP JUMPDEST SWAP1 POP PUSH1 0x20 DUP2 ADD SWAP1 POP SWAP2 SWAP1 POP JUMP JUMPDEST PUSH1 0x0 DUP2 MLOAD SWAP1 POP SWAP2 SWAP1 POP JUMP JUMPDEST PUSH1 0x0 DUP3 DUP3 MSTORE PUSH1 0x20 DUP3 ADD SWAP1 POP SWAP3 SWAP2 POP POP JUMP JUMPDEST PUSH1 0x0 DUP2 SWAP1 POP SWAP3 SWAP2 POP POP JUMP JUMPDEST PUSH1 0x0 PUSH2 0x57E DUP3 PUSH2 0x675 JUMP JUMPDEST SWAP2 POP PUSH2 0x589 DUP4 PUSH2 0x675 JUMP JUMPDEST SWAP3 POP DUP3 PUSH1 0xFF SUB DUP3 GT ISZERO PUSH2 0x59F JUMPI PUSH2 0x59E PUSH2 0x6F5 JUMP JUMPDEST JUMPDEST DUP3 DUP3 ADD SWAP1 POP SWAP3 SWAP2 POP POP JUMP JUMPDEST PUSH1 0x0 PUSH2 0x5B5 DUP3 PUSH2 0x675 JUMP JUMPDEST SWAP2 POP PUSH2 0x5C0 DUP4 PUSH2 0x675 JUMP JUMPDEST SWAP3 POP DUP2 PUSH1 0xFF DIV DUP4 GT DUP3 ISZERO ISZERO AND ISZERO PUSH2 0x5DA JUMPI PUSH2 0x5D9 PUSH2 0x6F5 JUMP JUMPDEST JUMPDEST DUP3 DUP3 MUL SWAP1 POP SWAP3 SWAP2 POP POP JUMP JUMPDEST PUSH1 0x0 PUSH2 0x5F0 DUP3 PUSH2 0x65A JUMP JUMPDEST SWAP2 POP PUSH2 0x5FB DUP4 PUSH2 0x65A JUMP JUMPDEST SWAP3 POP DUP3 PUSH32 0xFFFFFFFFFFFFFFFFFFFFFFFFFFFFFFFFFFFFFFFFFFFFFFFFFFFFFFFFFFFFFF80 ADD DUP3 SLT PUSH1 0x0 DUP5 SLT ISZERO AND ISZERO PUSH2 0x636 JUMPI PUSH2 0x635 PUSH2 0x6F5 JUMP JUMPDEST JUMPDEST DUP3 PUSH1 0x7F ADD DUP3 SGT PUSH1 0x0 DUP5 SLT AND ISZERO PUSH2 0x64F JUMPI PUSH2 0x64E PUSH2 0x6F5 JUMP JUMPDEST JUMPDEST DUP3 DUP3 SUB SWAP1 POP SWAP3 SWAP2 POP POP JUMP JUMPDEST PUSH1 0x0 DUP2 PUSH1 0x0 SIGNEXTEND SWAP1 POP SWAP2 SWAP1 POP JUMP JUMPDEST PUSH1 0x0 PUSH2 0xFFFF DUP3 AND SWAP1 POP SWAP2 SWAP1 POP JUMP JUMPDEST PUSH1 0x0 PUSH1 0xFF DUP3 AND SWAP1 POP SWAP2 SWAP1 POP JUMP JUMPDEST DUP3 DUP2 DUP4 CALLDATACOPY PUSH1 0x0 DUP4 DUP4 ADD MSTORE POP POP POP JUMP JUMPDEST PUSH1 0x0 JUMPDEST DUP4 DUP2 LT ISZERO PUSH2 0x6AF JUMPI DUP1 DUP3 ADD MLOAD DUP2 DUP5 ADD MSTORE PUSH1 0x20 DUP2 ADD SWAP1 POP PUSH2 0x694 JUMP JUMPDEST DUP4 DUP2 GT ISZERO PUSH2 0x6BE JUMPI PUSH1 0x0 DUP5 DUP5 ADD MSTORE JUMPDEST POP POP POP POP JUMP JUMPDEST PUSH2 0x6CD DUP3 PUSH2 0x767 JUMP JUMPDEST DUP2 ADD DUP2 DUP2 LT PUSH8 0xFFFFFFFFFFFFFFFF DUP3 GT OR ISZERO PUSH2 0x6EC JUMPI PUSH2 0x6EB PUSH2 0x724 JUMP JUMPDEST JUMPDEST DUP1 PUSH1 0x40 MSTORE POP POP POP JUMP JUMPDEST PUSH32 0x4E487B7100000000000000000000000000000000000000000000000000000000 PUSH1 0x0 MSTORE PUSH1 0x11 PUSH1 0x4 MSTORE PUSH1 0x24 PUSH1 0x0 REVERT JUMPDEST PUSH32 0x4E487B7100000000000000000000000000000000000000000000000000000000 PUSH1 0x0 MSTORE PUSH1 0x41 PUSH1 0x4 MSTORE PUSH1 0x24 PUSH1 0x0 REVERT JUMPDEST PUSH1 0x0 DUP1 REVERT JUMPDEST PUSH1 0x0 DUP1 REVERT JUMPDEST PUSH1 0x0 DUP1 REVERT JUMPDEST PUSH1 0x0 DUP1 REVERT JUMPDEST PUSH1 0x0 PUSH1 0x1F NOT PUSH1 0x1F DUP4 ADD AND SWAP1 POP SWAP2 SWAP1 POP JUMP JUMPDEST PUSH2 0x781 DUP2 PUSH2 0x667 JUMP JUMPDEST DUP2 EQ PUSH2 0x78C JUMPI PUSH1 0x0 DUP1 REVERT JUMPDEST POP JUMP JUMPDEST PUSH2 0x798 DUP2 PUSH2 0x675 JUMP JUMPDEST DUP2 EQ PUSH2 0x7A3 JUMPI PUSH1 0x0 DUP1 REVERT JUMPDEST POP JUMP INVALID LOG2 PUSH5 0x6970667358 0x22 SLT KECCAK256 PUSH17 0xC5A5E78A42906A0FE624CC454AFFC440F 0x4A DUP14 0xD4 0xC7 0xAD PUSH22 0x392336A715D9D80F64736F6C63430008070033000000 "
				},
				"gasEstimates": {
					"creation": {
						"codeDepositCost": "402400",
						"executionCost": "436",
						"totalCost": "402836"
					},
					"external": {
						"addStoredNumber()": "infinite",
						"multiplyStoredNumber()": "infinite",
						"sayHello(string)": "infinite",
						"store(uint8,uint16,uint8)": "infinite",
						"subtractStoredNumber()": "infinite"
					}
				},
				"methodIdentifiers": {
					"addStoredNumber()": "f72adfb7",
					"multiplyStoredNumber()": "704f487c",
					"sayHello(string)": "c3a9b1c5",
					"store(uint8,uint16,uint8)": "27f23416",
					"subtractStoredNumber()": "e19a4ef4"
				}
			},
			"storageLayout": {
				"storage": [
					{
						"astId": 4,
						"contract": "github/reselbob/solidity_examples/optimization/nonoptimized.sol:Nonoptimzed",
						"label": "a",
						"offset": 0,
						"slot": "0",
						"type": "t_uint8"
					},
					{
						"astId": 6,
						"contract": "github/reselbob/solidity_examples/optimization/nonoptimized.sol:Nonoptimzed",
						"label": "b",
						"offset": 1,
						"slot": "0",
						"type": "t_uint16"
					},
					{
						"astId": 8,
						"contract": "github/reselbob/solidity_examples/optimization/nonoptimized.sol:Nonoptimzed",
						"label": "c",
						"offset": 3,
						"slot": "0",
						"type": "t_uint8"
					}
				],
				"types": {
					"t_uint16": {
						"encoding": "inplace",
						"label": "uint16",
						"numberOfBytes": "2"
					},
					"t_uint8": {
						"encoding": "inplace",
						"label": "uint8",
						"numberOfBytes": "1"
					}
				}
			},
			"userdoc": {
				"kind": "user",
				"methods": {},
				"version": 1
			}
		}
	}
}